:020000040000FA
:100000000C9463000C948B000C948B000C943903BB
:100010000C9439030C9439030C948B000C948B00D2
:100020000C948B000C948B000C948B000C948B0024
:100030000C948B000C948B000C948B000C948B0014
:100040000C94EF020C948B000C94BD020C9497025C
:100050000C948B000C948B000C948B000C948B00F4
:100060000C948B000C948B0000000008000201002F
:100070000003040700000000000000000000000072
:1000800023002600290000000000240027002A0089
:1000900000000000250028002B00040404040404D0
:1000A0000404020202020202030303030303010227
:1000B00004081020408001020408102001020408F6
:1000C0001020B103CA0511241FBECFEFD8E0DEBF58
:1000D000CDBF11E0A0E0B1E0E2E4FCE002C0059099
:1000E0000D92A432B107D9F722E0A4E2B1E001C039
:1000F0001D92AD32B207E1F710E0C2E6D0E004C0D5
:100100002197FE010E940E06C136D107C9F70E9451
:100110009A040C9414060C9400000895AF92BF92B8
:10012000CF92DF92EF92FF920F931F93CF93DF93C3
:100130006C017B018B01040F151FEB015E01AE18F2
:10014000BF08C017D10759F06991D601ED91FC9114
:100150000190F081E02DC6010995892B79F7C50141
:10016000DF91CF911F910F91FF90EF90DF90CF9093
:10017000BF90AF900895FC01538D448D252F30E042
:10018000842F90E0821B930B541710F0CF960895A4
:1001900001970895FC01918D828D981761F0A28DD1
:1001A000AE0FBF2FB11D5D968C91928D9F5F9F7397
:1001B000928F90E008958FEF9FEF0895FC01918D4D
:1001C000828D981731F0828DE80FF11D858D90E0BA
:1001D00008958FEF9FEF0895FC01918D228D892F57
:1001E00090E0805C9F4F821B91098F73992708953F
:1001F00081E791E00E94EC0021E0892B09F420E0E6
:10020000822F089580E090E0892B29F00E94F80069
:1002100081110C9400000895FC01A48DA80FB92F42
:10022000B11DA35ABF4F2C91848D90E001968F731E
:100230009927848FA689B7892C93A089B1898C913D
:10024000837080648C93938D848D981306C002888C
:10025000F389E02D80818F7D80830895EF92FF9256
:100260000F931F93CF93DF93EC0181E0888F9B8DD9
:100270008C8D98131AC0E889F989808185FF15C093
:100280009FB7F894EE89FF896083E889F9898081B6
:100290008370806480839FBF81E090E0DF91CF9185
:1002A0001F910F91FF90EF900895F62E0B8D10E0A7
:1002B0000F5F1F4F0F731127E02E8C8D8E110CC016
:1002C0000FB607FCFACFE889F989808185FFF5CF61
:1002D000CE010E940C01F1CFEB8DEC0FFD2FF11D33
:1002E000E35AFF4FF0829FB7F8940B8FEA89FB899E
:1002F00080818062CFCFCF93DF93EC01888D8823FC
:10030000B9F0AA89BB89E889F9898C9185FD03C078
:10031000808186FD0DC00FB607FCF7CF8C9185FF5D
:10032000F2CF808185FFEDCFCE010E940C01E9CF95
:10033000DF91CF91089590E0FC01E859FF4F24919F
:10034000FC01E255FF4F3491FC01E656FF4FE4916A
:10035000EE23C9F0222339F0233001F1A8F4213033
:1003600019F1223029F1F0E0EE0FFF1FE057FF4FA7
:10037000A591B4918FB7F894EC91611126C0309596
:100380003E233C938FBF08952730A9F02830C9F051
:10039000243049F7809180008F7D03C080918000D8
:1003A0008F7780938000DFCF84B58F7784BDDBCFDC
:1003B00084B58F7DFBCF8091B0008F778093B000A4
:1003C000D2CF8091B0008F7DF9CF3E2BDACF209134
:1003D0006F01309170012817390771F490916D0108
:1003E00080916E01981741F0E0916D01F0E0EC5DB5
:1003F000FE4F808190E008958FEF9FEF0895EF9278
:10040000FF920F931F93CF93DF93DC015C96ED90E7
:10041000FC905D97E114F10479F481E090E013968B
:100420009C938E93129790E080E0DF91CF911F9183
:100430000F91FF90EF9008955196ED91FC91529796
:1004400050968C915097982F90950FB75E962C915F
:100450005E97122F127021FD6095F8942081112370
:1004600019F1282B2083E7012197F1F728E0462F87
:1004700050E0308160FF1AC0382B3083E7012197AC
:10048000F1F7BA0175956795215089F7112381F02D
:100490008081892380830FBF5C968D919C91019709
:1004A000F1F781E090E0C1CF2923DCCF3923E5CFFC
:1004B0009081892BEFCF20916F0130917001281727
:1004C000390771F480916E0120916D0190E0805C9C
:1004D0009F4F821B910960E470E00E94E605089539
:1004E00090E080E0089520916F013091700128170D
:1004F0003907B9F490916D0180916E01981789F0D8
:10050000E0916D01F0E0EC5DFE4F808120916D0186
:1005100030E02F5F3F4F2F73332720936D0190E022
:1005200008958FEF9FEF089590E080E008951F9267
:100530000F920FB60F9211242F933F934F935F9317
:100540006F937F938F939F93AF93BF93EF93FF939B
:1005500081E791E00E940C01FF91EF91BF91AF9173
:100560009F918F917F916F915F914F913F912F91CB
:100570000F900FBE0F901F9018951F920F920FB6FD
:100580000F9211242F938F939F93EF93FF93E091FA
:100590008101F09182018081E0918701F0918801D1
:1005A00082FD1BC0908180918A018F5F8F732091A3
:1005B0008B01821741F0E0918A01F0E0EF58FE4F85
:1005C000958F80938A01FF91EF919F918F912F9149
:1005D0000F900FBE0F901F9018958081F4CF1F923F
:1005E0000F920FB60F9211242F933F938F939F93E7
:1005F000AF93BF938091690190916A01A0916B01C3
:10060000B0916C013091680123E0230F2D3758F52C
:100610000196A11DB11D20936801809369019093FB
:100620006A01A0936B01B0936C0180916401909179
:100630006501A0916601B09167010196A11DB11DF0
:100640008093640190936501A0936601B093670164
:10065000BF91AF919F918F913F912F910F900FBEBE
:100660000F901F90189526E8230F0296A11DB11D2B
:10067000D2CF1F920F920FB60F9211242F933F9358
:100680004F935F936F937F938F939F93AF93BF939A
:10069000EF93FF93E0916F01F0917001309749F073
:1006A000A685B7858585968D91FF14C09C91892379
:1006B000A1F4FF91EF91BF91AF919F918F917F91A5
:1006C0006F915F914F913F912F910F900FBE0F90BF
:1006D0001F9018959C91892361F7A389B4899C91F7
:1006E0008589809589238C93868997890197F1F76D
:1006F000608D718DA685B785558538E020E0CB01EA
:100700000197F1F7822F90E095958795282F4C91CE
:10071000452309F02068315091F7868D81FD2095A1
:1007200080916E0190E001968F73992730916D0151
:10073000381799F0A0916E01B0E0AC5DBE4F2C93DC
:1007400080936E01828D938D0197F1F7A389B4890F
:100750008C919589892B8C93ACCF868D8160868F07
:10076000F1CF0F931F93CF93DF93109274011092E8
:10077000730188EE93E0A0E0B0E080937501909360
:100780007601A0937701B093780124E031E03093B3
:1007900072012093710125EC30E030937E012093AB
:1007A0007D0124EC30E03093800120937F0120EC28
:1007B00030E0309382012093810121EC30E03093CE
:1007C00084012093830122EC30E030938601209352
:1007D000850126EC30E03093880120938701109248
:1007E0008A0110928B0110928C0110928D0110924F
:1007F0001102109210028093120290931302A093A0
:100800001402B093150286E191E090930F02809359
:100810000E021092250210922402109227021092CA
:100820002602109229021092280210922B02109296
:100830002A0260912C026E7F6D7F60932C02669578
:10084000617081E068278AE00E949B0148EB50E0DC
:10085000FA01649184EA90E0FC012491222399F04A
:1008600030E0220F331FF901EA57FF4FA591B491F1
:10087000F901E057FF4F259134912FB7F8943C913F
:10088000632B6C932FBFFA01449140931E02FC012D
:100890008491E82FF0E0EE0FFF1FE057FF4F8591A6
:1008A00094919093200280931F0209EB10E0F801CD
:1008B0002491C5EAD0E0FE0184918823C9F090E03C
:1008C000880F991FFC01EA57FF4FA591B491FC01D5
:1008D000E057FF4F459154913FB7F8949C91822F78
:1008E000809598239C93FA019081892380833FBF50
:1008F00080912C0281FD04C061E08BE00E949B018D
:100900008BE080931A02F801049100931B02FE0110
:10091000C491EC2FF0E0EE0FFF1FE458FF4F8591DC
:10092000949190931D0280931C02DF91CF911F91AF
:100930000F910895789484B5826084BD84B58160F8
:1009400084BD85B5826085BD85B5816085BD80919A
:100950006E00816080936E00109281008091810012
:10096000826080938100809181008160809381000A
:10097000809180008160809380008091B1008460CC
:100980008093B1008091B00081608093B00080912D
:100990007A00846080937A0080917A0082608093EC
:1009A0007A0080917A00816080937A0080917A0049
:1009B000806880937A001092C100E0918101F091EB
:1009C000820182E08083E0917D01F0917E011082BE
:1009D000E0917F01F09180018FEC8083109289017A
:1009E000E0918501F091860186E08083E0918301AA
:1009F000F0918401808180618083E0918301F09196
:100A00008401808188608083E0918301F09184017A
:100A1000808180688083E0918301F09184018081EE
:100A20008F7D808310922902109228021092270253
:100A30001092260210922502109224028DE991E074
:100A400090932B0280932A0290911A02963108F01B
:100A500047C02DEB30E030932502209324022BE990
:100A600031E030932702209326022CE231E03093CC
:100A70002902209328022091680084E0983048F0F1
:100A800031E09E3008F430E081E001C0880F3A95F3
:100A9000EAF7822B809368002DE630E0983050F022
:100AA0002BE630E09E3030F02CE630E0963110F04E
:100AB00030E020E03093220220932102292F30E001
:100AC000983008F05AC081E001C0880F9A95EAF783
:100AD0008093230280912A0290912B020197F1F7D3
:100AE0008091280290912902892B49F1E0916F01B0
:100AF000F091700182E0EE30F80709F1309739F09B
:100B0000A389B4899C918589809589238C93809150
:100B10002C028E7F80932C0210926E0110926D0138
:100B20008EE092E09093700180936F01E09121023A
:100B3000F0912202808190912302892B8083C0E072
:100B4000D0E08EE092E00E945B021816190664F471
:100B50008EE092E00E94730261E08CE00E949B01B3
:100B600060E08CE00E949B01209759F30E94F800FE
:100B7000882339F30E940000E4CF9E3040F42850CF
:100B8000310981E001C0880F2A95EAF7A1CF2E50E4
:100B90003109F7CF86E191E090930F0280930E0226
:100BA00080916F01909170018E50924071F4E091AC
:100BB0002102F09122029081809123028095892365
:100BC00080831092700110926F01089597FB072E99
:100BD00016F4009407D077FD09D00E94FA0507FCAF
:100BE00005D03EF4909581959F4F0895709561953D
:100BF0007F4F0895AA1BBB1B51E107C0AA1FBB1F53
:100C0000A617B70710F0A61BB70B881F991F5A9598
:100C1000A9F780959095BC01CD010895EE0FFF1FB7
:100C20000590F491E02D099410E0C2E6D0E004C0F4
:100C3000FE010E940E062196C336D107C9F7F8942B
:100C4000FFCF000000002E018E00BB007B01EC00F6
:100C5000CA00DE0000000000FF018E0094028D003B
:060C60005B027302E701D4
:107E0000112484B714BE81FFF0D085E080938100F7
:107E100082E08093C00088E18093C10086E0809377
:107E2000C20080E18093C4008EE0C9D0259A86E02C
:107E300020E33CEF91E0309385002093840096BBD3
:107E4000B09BFECF1D9AA8958150A9F7CC24DD24C4
:107E500088248394B5E0AB2EA1E19A2EF3E0BF2EE7
:107E6000A2D0813461F49FD0082FAFD0023811F036
:107E7000013811F484E001C083E08DD089C08234E0
:107E800011F484E103C0853419F485E0A6D080C0E4
:107E9000853579F488D0E82EFF2485D0082F10E0AE
:107EA000102F00270E291F29000F111F8ED06801E7
:107EB0006FC0863521F484E090D080E0DECF843638
:107EC00009F040C070D06FD0082F6DD080E0C81688
:107ED00080E7D80618F4F601B7BEE895C0E0D1E017
:107EE00062D089930C17E1F7F0E0CF16F0E7DF06D8
:107EF00018F0F601B7BEE89568D007B600FCFDCFD4
:107F0000A601A0E0B1E02C9130E011968C91119780
:107F100090E0982F8827822B932B1296FA010C0160
:107F200087BEE89511244E5F5F4FF1E0A038BF0790
:107F300051F7F601A7BEE89507B600FCFDCF97BE46
:107F4000E89526C08437B1F42ED02DD0F82E2BD052
:107F50003CD0F601EF2C8F010F5F1F4F84911BD097
:107F6000EA94F801C1F70894C11CD11CFA94CF0C13
:107F7000D11C0EC0853739F428D08EE10CD085E9AC
:107F80000AD08FE07ACF813511F488E018D01DD067
:107F900080E101D065CF982F8091C00085FFFCCF94
:107FA0009093C60008958091C00087FFFCCF809118
:107FB000C00084FD01C0A8958091C6000895E0E648
:107FC000F0E098E1908380830895EDDF803219F02E
:107FD00088E0F5DFFFCF84E1DECF1F93182FE3DFCA
:107FE0001150E9F7F2DF1F91089580E0E8DFEE27F6
:047FF000FF270994CA
:027FFE00040479
:00000001FF
